:100000000C9434040C945C040C945C040C945C0418
:100010000C945C040C945C040C945C040C945C04E0
:100020000C945C040C945C040C94910B0C94000CE8
:100030000C945C040C945C040C945C040C945C04C0
:100040000C945C040C945C040C945C040C945C04B0
:100050000C945C040C945C040C945C040C94320EC0
:100060000C945C040C945C040C945C040C945C0490
:100070000C945C040C945C040C945C040C945C0480
:100080000C945C040C945C040C945C040C945C0470
:100090000C945C040C945C040C945C040C945C0460
:1000A0000C945C040C945C040C945C0405A84CCD8A
:1000B000B2D44EB93836A9020C50B9918688083CA2
:1000C000A6AAAA2ABE000000803F00000000003E51
:1000D0005B4F5B3E3E6B4F6B3E1C3E7C3E1C183CB8
:1000E0007E3C181C577D571C1C5E7F5E1C00183C14
:1000F0001800FFE7C3E7FF0018241800FFE7DBE75D
:10010000FF30483A060E2629792926407F05050743
:10011000407F05253F5A3CE73C5A7F3E1C1C08089F
:100120001C1C3E7F14227F22145F5F005F5F060964
:100130007F017F006689956A606060606094A2FFBD
:10014000A29408047E040810207E201008082A1CAF
:1001500008081C2A08081E101010100C1E0C1E0C7B
:1001600030383E3830060E3E0E060000000000001B
:10017000005F00000007000700147F147F14242A8A
:100180007F2A12231308646236495620500008075C
:100190000300001C2241000041221C002A1C7F1C7D
:1001A0002A08083E0808008070300008080808087F
:1001B000000060600020100804023E5149453E00E6
:1001C000427F400072494949462141494D33181444
:1001D000127F1027454545393C4A49493141211193
:1001E00009073649494936464949291E0000140085
:1001F00000004034000000081422411414141414A8
:10020000004122140802015909063E415D594E7C05
:100210001211127C7F494949363E414141227F41BA
:1002200041413E7F494949417F090909013E414118
:1002300051737F0808087F00417F41002040413F03
:10024000017F081422417F404040407F021C027F12
:100250007F0408107F3E4141413E7F090909063E67
:100260004151215E7F091929462649494932030136
:100270007F01033F4040403F1F2040201F3F403848
:10028000403F631408146303047804036159494D23
:1002900043007F4141410204081020004141417F59
:1002A00004020102044040404040000307080020CF
:1002B000545478407F2844443838444444283844CF
:1002C00044287F385454541800087E090218A4A406
:1002D0009C787F0804047800447D40002040403D25
:1002E000007F1028440000417F40007C047804789F
:1002F0007C080404783844444438FC182424181832
:10030000242418FC7C08040408485454542404048D
:100310003F44243C4040207C1C2040201C3C40307A
:10032000403C44281028444C9090907C4464544CA9
:100330004400083641000000770000004136080004
:1003400002010204023C2623263C1EA1A161123AAE
:100350004040207A385454555921555579412154FB
:10036000547841215554784020545579400C1E5200
:1003700072123955555559395454545939555454A4
:10038000580000457C410002457D420001457C400B
:10039000F0292429F0F0282528F07C545545002028
:1003A00054547C547C0A097F4932494949323248C5
:1003B000484832324A4848303A4141217A3A42402C
:1003C0002078009DA0A07D39444444393D40404000
:1003D0003D3C24FF2424487E4943662B2FFC2F2BD1
:1003E000FF0929F620C0887E090320545479410072
:1003F00000447D413048484A32384040227A007AF1
:100400000A0A727D0D19317D2629292F28262929CE
:10041000292630484D4020380808080808080808F0
:10042000382F10C8ACBA2F102834FA00007B000017
:1004300008142A142222142A14089500220095AACE
:10044000005500AAAA55AA55AA000000FF001010E6
:1004500010FF00141414FF001010FF00FF1010F024
:1004600010F0141414FC001414F700FF0000FF0037
:10047000FF1414F404FC141417101F10101F101F85
:100480001414141F00101010F0000000001F1010B2
:1004900010101F10101010F010000000FF101010AE
:1004A000101010101010FF10000000FF140000FFCB
:1004B00000FF00001F10170000FC04F414141710B4
:1004C000171414F404F40000FF00F71414141414A7
:1004D0001414F700F7141414171410101F101F141D
:1004E0001414F4141010F010F000001F101F00007E
:1004F000001F14000000FC140000F010F01010FFAA
:1005000010FF141414FF141010101F00000000F04E
:1005100010FFFFFFFFFFF0F0F0F0F0FFFFFF000023
:10052000000000FFFF0F0F0F0F0F38444438447CCA
:100530002A2A3E147E02020606027E027E026355CD
:100540004941633844443C04407E201E2006027E1C
:10055000020299A5E7A5991C2A492A1C4C7201722E
:100560004C304A4D4D303048784830BC625A463D98
:100570003E494949007E0101017E2A2A2A2A2A444D
:10058000445F444440514A444040444A5140000082
:10059000FF0103E080FF000008086B6B083612368D
:1005A0002436060F090F060000181800000010106E
:1005B000003040FF0101001F01011E00191D17122C
:1005C000003C3C3C3C000000000000B00000A1707A
:1005D000E150964F26900F1D070C009669004AE4E3
:1005E0004A0048444000806810000F99FB8F9DBD71
:1005F000BBFB77D4D4DF1F1A1AFE7F5D5DFF805AE4
:100600000000A0A4AA0010BA3400FF5953F3FF9BC6
:100610009B9EFFB9B996FF9595D19FF4940FFC2945
:100620005F91FF1838F8FF9294FFFF95D5F7BFB59B
:10063000DDD7F18F81F1F788C8F779C6467909FDD2
:100640009B090196F8008281828050716200775682
:10065000560076763700A2B7730107720600782736
:10066000500073347400775176007F55F70047715E
:100670001000324772007364730015A27500616741
:100680009400009F6060F4F2F6F2F0F89C8E87838D
:10069000878E9CF8F00000FEFF0303030303070EA0
:1006A000FCF80000FEFF0303030303070EFCF80041
:1006B00000FFFF00000000000000FFFF0000FEFF41
:1006C0008383838383C7EE7C380000F8FC0E070326
:1006D0000303070EFCF800003F7FE0C08080C0E00D
:1006E0007F3FFFFF01010101010101FFFF0000FF4A
:1006F000FF0C0C0C0C1C3E77E3C100007FFFC0C058
:10070000C0C0C0E0703F1F00001F3F70E0C0C0C00D
:10071000E0703F1F00007FFFC1C1C1C1C1E3773E50
:100720001C00001F3F70E0C0C0C0E0703F1F000011
:1007300000000001FFFF01000000D5F08D14A1C8EA
:1007400081CFD9F1AF20002020204B7572616D6FF1
:10075000746F5F6D6F64656C5F4B0A20204C45467B
:10076000543A202B20667265710A2052494748543A
:100770003A202D20667265710A2020202055503ABB
:10078000202B204E286F7363696C6C290A2020444B
:100790004F574E3A202D204E286F7363696C6C2999
:1007A0000A2020202020413A204F66662F4F6E20DD
:1007B000736F756E640A2020202020423A20445432
:1007C000202B20302E30310A422B55502F443A2016
:1007D0004B202B2F2D302E30310A2041202B204250
:1007E0003A20457869740A2020507265737320415D
:1007F00020746F20737461727400080B000202028F
:10080000000009040000010202000005240010019C
:100810000524010101042402060524060001070540
:10082000810310004009040100020A0000000705CE
:10083000020240000007058302400000040309048F
:1008400012010002EF020140412336800001010243
:10085000030141726475696E6F204C4C4300417214
:100860006475626F7900AF0E11241FBECFEFDAE01E
:10087000DEBFCDBF11E0A0E0B1E0E6EBF9E302C0DE
:1008800005900D92A638B107D9F726E0A6E8B1E0A9
:1008900001C01D92A733B207E1F714E0C4E3D4E02E
:1008A00004C02197FE010E94AE1BC333D107C9F7D4
:1008B0000E94EF0E0C94D91C0C940000EAE1F2E0C7
:1008C000A0E0B8E000800EBC8111012C1197A0FDC2
:1008D000FDCF0192B9F70DB40895E1E0F0E00E9478
:1008E0008204319728F068517C4F8F4F9F4FF9CF8A
:1008F000AB01FC010E948204641775078E079F07F5
:10090000C8F30895AEE8B1E02FB7F8947D918D91CA
:100910009C9166B52FBFA89B05C06F3F18F47F5F01
:100920008F4F9F4F22E0660F771F881F991F2A95D0
:10093000D1F70895FC018091C901882311F13FB7D7
:10094000F89482E08093E9002091F200822F90E0F9
:100950001816190614F481E090E0882339F02898DD
:1009600044E64093C8014091F1004083222339F0CE
:100970002091F200211103C02BE62093E8003FBF35
:1009800008958FEF9FEF08952FB7F89483E0809339
:10099000E9009091E800892F807295FF04C0909142
:1009A000F20080E4891B2FBF08958091C00181115E
:1009B0000DC082E08093BC0184E08093BD01109261
:1009C000BF011092BE0181E08093C0018CEB91E0E9
:1009D00008958F929F92AF92BF92CF92DF92EF9243
:1009E000FF920F931F93CF93DF936C017B018A01DA
:1009F00080911501882309F458C08091C90188238A
:100A000009F453C08091BB0180FF05C08091E000D4
:100A100082608093E000E801B12C8AEFA82E93E079
:100A2000892E2AE3922E209711F4BB20B9F10E945F
:100A3000C404811106C0AA94AA20B9F10E946D04D1
:100A4000F2CF8C171D0611F00CF08C2F9FB7F89485
:100A50008092E9002091E80025FD02C09FBFE3CF0E
:100A6000282F30E0C21BD30BF701815020F04191B9
:100A70004093F100FACFE20EF31EBB2021F09092DA
:100A8000E800B12CEBCF8091E80085FDE7CF909294
:100A9000E800BB24B394209709F3F3CF5D9884E674
:100AA0008093BA01101611063CF081E090E0F60147
:100AB0009383828310E000E0C801DF91CF911F9102
:100AC0000F91FF90EF90DF90CF90BF90AF909F90ED
:100AD0008F900895CF93DF931F92CDB7DEB76983D0
:100AE000DC01ED91FC910280F381E02D41E050E0CA
:100AF000BE016F5F7F4F09950F90DF91CF910895F1
:100B000083E08093E9008091F200882319F08AE362
:100B10008093E80008950E94C40490E00895CF9364
:100B2000DF931F92CDB7DEB7FC018485958597FDD5
:100B300008C02FEF3FEF358724870F90DF91CF91CB
:100B40000895CE0101960E949A04019719F48981B3
:100B500090E0F3CF8FEF9FEFF0CF0F931F93CF93E2
:100B6000DF931F92CDB7DEB78C01FC01848595859C
:100B700097FF0BC0CE0101960E949A04019771F471
:100B8000898190E0F80195878487F80184859585AF
:100B90000F90DF91CF911F910F9108958FEF9FEFED
:100BA000F1CFFC018485958597FD0BC09FB7F89424
:100BB00082E08093E9008091F2009FBF90E001966F
:100BC00008959FB7F89482E08093E9008091F20045
:100BD0009FBF90E008954091B6015091B7012091D8
:100BE000B4013091B50142175307B4F49091E80075
:100BF0009570E1F39091E80092FD19C08093F100A7
:100C00008091B6019091B70101968F739927892B36
:100C100019F48EEF8093E8008091B6019091B701AE
:100C200001969093B7018093B60181E0089580E02A
:100C30000895DF92EF92FF920F931F93CF93DF936C
:100C4000D82E8A01EB017B01E40EF51ECE15DF05DF
:100C500059F0D7FE12C0FE0184910E94EB05219647
:100C60008111F4CF0FEF1FEFC801DF91CF911F91DA
:100C70000F91FF90EF90DF9008958881EECF0F9352
:100C80001F93CF93DF931F92CDB7DEB782E08983A6
:100C900042E450E06AEF77E080E80E9419060E9483
:100CA000D504DC0112960D911C910115110589F0F6
:100CB000D801ED91FC910280F381E02DBE016F5FC0
:100CC0007F4FC801099597FD04C0F8010085118583
:100CD000ECCF89810F90DF91CF911F910F910895F3
:100CE000615030F02091F100FC0120830196F8CF93
:100CF000289884E68093C8010895AF92BF92CF925E
:100D0000DF92EF92FF920F931F93CF93DF936C01CB
:100D10007B018B01040F151FEB015E01AE18BF08AC
:100D2000C017D10759F06991D601ED91FC9101905E
:100D3000F081E02DC6010995892B79F7C501DF9176
:100D4000CF911F910F91FF90EF90DF90CF90BF90C8
:100D5000AF9008956F927F928F929F92AF92BF92C1
:100D6000CF92DF92EF92FF920F931F93CF93DF9377
:100D70004C017B01C22F102F98E0A92EB12C642EBC
:100D8000669466946694712CCA0187709927892BA2
:100D900079F5D40117962D913C91C7019927B90196
:100DA0000E94861B269DF001279DF00D369DF00DBB
:100DB00011248E0F9F1FD4011596ED91FC91E80F21
:100DC000F91F2081111112C0C095C223C083DF9189
:100DD000CF911F910F91FF90EF90DF90CF90BF9038
:100DE000AF909F908F907F906F900895C22BEECF21
:100DF000D0E04770C42ED12C83E0660C771C8A9516
:100E0000E1F79E0101C0220F4A95EAF7012FA301E5
:100E1000B701C4010E94AA06A301485F5F4FC50144
:100E20008C199D0902C0D595C7958A95E2F7A7CF81
:100E30005F926F927F928F929F92AF92BF92CF926A
:100E4000DF92EF92FF920F931F93CF93DF93EC010A
:100E50006A30F1F48D859E859C878B878C892F85E0
:100E60003889820F932F911D988B8F8781E090E0B6
:100E7000DF91CF911F910F91FF90EF90DF90CF9076
:100E8000BF90AF909F908F907F906F905F900895EC
:100E9000AB84BC84693031F429E0A20EB11CBC865D
:100EA000AB86E4CF3DEFA3163FEFB3060CF45DC075
:100EB0008F819885A816B9060CF057C0CF84D888C2
:100EC0008DEFC8168FEFD8060CF44FC089859A8530
:100ED000C816D9060CF049C0603208F46FE780EEFE
:100EE000860F9FE9960F9A3118F49FEFC91AD90A15
:100EF0008C3011F08B3119F42FEFC21AD20A86957B
:100F000034E0839FC00111249C0126533A4F79019C
:100F1000912C812C162F1170F701E80DF91D5490BA
:100F200011112DC0352D3F70532E3501680C791CE1
:100F30008C81882361F001E089899A89892B09F0E5
:100F400000E02FE0A601B301CE010E94AA060989A4
:100F5000252DA601B301CE010E94AA068FEF881AA3
:100F6000980A94E089169104B9F68B8990E004966A
:100F70002B853C85820F931F9C878B8777CF52945C
:100F80008FE05822D2CF2D9A0895BC0190E080E0E6
:100F9000AB01FC010E94820441505109E109F109B1
:100FA00028F068517C4F8F4F9F4FF6CFAB01FC016B
:100FB0000E948204641775078E079F07C8F308957F
:100FC0008FB18095807F669B88601C9B84600895AC
:100FD00081E083BF889513BE089580E0EAE1F2E0E6
:100FE00081118FEF002481938193819381930394E6
:100FF000D1F71092930110929201109295011092E4
:10100000940108959091AC01982329F49091AD0139
:10101000982381E009F480E00895CF93C82F0E94BF
:10102000E007982F9C2381E09C1380E0CF910895E6
:1010300080E00C945E0480389105B8F4603471054A
:10104000A0F420E191E061FD94E060FD990F62FD64
:101050009295687F269FD0011124A80FA65EBD4FF0
:101060008C9140FF03C0892B8C9308959095892320
:10107000FBCFEF92FF920F931F93CF93DF937C01EF
:101080008B01040F111DEB0177FF02C0D0E0C0E01F
:10109000C8010134110514F080E490E0C817D907A5
:1010A0003CF441E0BE01C7010E941B082196F0CF2D
:1010B000DF91CF911F910F91FF90EF9008953F9294
:1010C0004F925F926F927F928F929F92AF92BF9258
:1010D000CF92DF92EF92FF920F931F93CF93DF9304
:1010E00000D000D0CDB7DEB77C016B01A42EB12CAF
:1010F000440F4F5F6A197B090E94390821E030E0F4
:101100002A193B093C832B83882499248A189B083D
:10111000880C991C66246394712C90E080E02B81EC
:101120003C8185012F3F3F4F59F00150110922E0CA
:10113000820E911C2B813C81280D391D3C832B8311
:101140002C013FEF431A530A42E0640E711C8B815D
:101150009C81860D971D9C838B83302E330C33949A
:101160009601201B310B3A832983432DB901C2011B
:101170008E0D9F1D0E9439085601A418B508462DF2
:10118000B501C701800F911F0E943908432D698165
:101190007A81C701841995090E943908462DB50145
:1011A000C701801B910B0E94390881E090E022E08A
:1011B000A22EB12C401651060CF4B1CF0F900F9017
:1011C0000F900F90DF91CF911F910F91FF90EF90B3
:1011D000DF90CF90BF90AF909F908F907F906F9057
:1011E0005F904F903F9008952F923F924F925F9261
:1011F0006F927F928F929F92AF92BF92CF92DF9227
:10120000EF92FF920F931F93CF93DF93EC018B012B
:101210007A016901C61AD70AD7FE03C0D194C194D6
:10122000D10847018C1A9D0A97FE03C091948194BE
:1012300091088C149D0454F49E2D8F2D7901292F33
:10124000382F9C2F8D2FE801092F182FEC16FD0643
:1012500054F4902F812F8901292F382F9C2F8D2F07
:10126000E701E92EF82E17012C1A3D0A2901401A30
:10127000510A57FE03C0519441945108310137FE81
:1012800003C08FEF681A780A759467948FEF02177E
:1012900013070CF481E0A82E880FBB08EC16FD069E
:1012A000A4F041E0BE01C8018C149D0414F0B80103
:1012B000CE010E941B086418750877FE04C00A0D51
:1012C0001B1D620C731C2196E9CFDF91CF911F91FA
:1012D0000F91FF90EF90DF90CF90BF90AF909F90D5
:1012E0008F907F906F905F904F903F902F900895D8
:1012F0008F929F92AF92BF92CF92DF92EF92FF9226
:101300000F931F93CF93DF936D3089F0C0909201BC
:10131000D09093016A30D1F410929501109294010B
:1013200088E0C80ED11CD0929301C092920181E056
:1013300090E0DF91CF911F910F91FF90EF90DF90A0
:10134000CF90BF90AF909F908F900895009194019F
:1013500010919501E5E06E9FE0011124C653DF4F27
:101360004801F12CF5E0E12CFF1629F0CE010196A1
:10137000FE01E490EC01B12CA12C4E2D4170B60180
:101380006A0D7B1DC4010E941B08E694FFEFAF1A93
:10139000BF0A88E0A816B10481F7F394EFEF8E1A24
:1013A0009E0AF6E0FF12DECF0A5F1F4F10939501F1
:1013B00000939401BCCF089590E080E00895FC0173
:1013C00001900020E9F73197AF01481B590BBC0190
:1013D0008AE196E00C947D068F929F92AF92BF9225
:1013E0000F931F93CF93DF93CDB7DEB7A1970FB6BF
:1013F000F894DEBF0FBECDBF19A2423008F44AE018
:101400008E010F5D1F4F842E912CB12CA12CA501B4
:1014100094010E942918E62FB901CA01EA30F4F4B8
:10142000E05DD801EE938D01232B242B252B79F73A
:1014300090E080E0109719F0CD010E94DF09A1969D
:101440000FB6F894DEBF0FBECDBFDF91CF911F91D5
:101450000F91BF90AF909F908F900895E95CE1CF7E
:101460004F925F926F927F928F929F92AF92BF92B4
:10147000CF92DF92EF92FF920F931F93CF936B0166
:101480007C01742EAC019B010E94461B882399F0BD
:1014900081E591E0CF911F910F91FF90EF90DF9048
:1014A000CF90BF90AF909F908F907F906F905F9004
:1014B0004F900C94DF0946015701E894B7F82FEFDD
:1014C0003FEF4FE75FE7C501B4010E94461B811162
:1014D0000DC02FEF3FEF4FE75FE7C501B4010E945A
:1014E000C71818161CF485E591E0D4CF2FEF3FEF15
:1014F0004FE75FE4C701B6010E94CC1A18161CF42E
:1015000089E591E0C7CF2FEF3FEF4FE75FECC701D1
:10151000B6010E94C71887FDF3CF20E030E0A90193
:10152000C701B6010E94C71810E000E087FF0AC09B
:101530006DE28AE196E00E9418078C01F7FAF094B8
:10154000F7F8F094C0E060E070E080E09FE37C1684
:1015500041F020E030E040E251E40E94D118CF5F3A
:10156000F6CFA70196010E945B182B013C010E9457
:101570004A194B015C014AE00E94EC097C01E00E33
:10158000F11ECC23C1F1C501B4010E9479199B0160
:10159000AC01C301B2010E945A184B015C016EE21A
:1015A0008AE196E00E941807E80EF91EC15018F172
:1015B00020E030E040E251E4C501B4010E94D11ABC
:1015C0002B013C010E944A194B01B12CA12C4AE08D
:1015D000C501B4010E94EC09E80EF91EC501B40171
:1015E0000E9479199B01AC01C301B2010E945A18F3
:1015F0004B015C01DBCFC701CF911F910F91FF9091
:10160000EF90DF90CF90BF90AF909F908F907F90A2
:101610006F905F904F900895CF92DF92EF92FF927C
:10162000CF93DF936C01990FEE08FF08F7FE19C006
:101630006DE28AE196E00E941807EC0166277727A1
:10164000CB016C197D098E099F094AE00E94EC09C3
:101650008C0F9D1FDF91CF91FF90EF90DF90CF9087
:1016600008954AE0C701B601DF91CF91FF90EF9056
:10167000DF90CF900C94EC09EF92FF920F931F93A1
:10168000CF93DF938091B2019091B301009741F025
:101690000E94501C8091AE019091AF010E94501C9D
:1016A000E0900001F0900101E701CC0FDD1FCC0FAD
:1016B000DD1FCE010E94B41B9093B3018093B20151
:1016C000CE010E94B41B8093AE019093AF018C01B8
:1016D000D0E0C0E0CE15DF05DCF4BE010D2E000C1D
:1016E000880B990B0E947B192DEC3CEC4CEC5DE3D4
:1016F0000E94D11A20E030E040E85FE30E945B18CE
:10170000F80161937193819391938F012196E2CFB8
:10171000DF91CF911F910F91FF90EF9008950C945E
:10172000E1171F920F920FB60F9211248F939F9380
:101730008091E1009091E100937F9093E10083FF1D
:101740000FC01092E90091E09093EB001092EC0032
:1017500092E39093ED001092C90198E09093F0000D
:1017600082FF22C093E09093E9009091F2009923C8
:1017700019F09AE39093E8009091BA01992341F00F
:101780009091BA0191509093BA01911101C05D9A64
:101790009091C801992341F09091C8019150909384
:1017A000C801911101C0289A84FF18C08091E200FD
:1017B0008E7E81608093E2008091E1008F7E809335
:1017C000E1008091BB018E7E80618093BB019F917F
:1017D0008F910F900FBE0F901F90189580FFF7CF3D
:1017E0008091E2008E7E80618093E2008091E10032
:1017F0008E7E8093E1008091BB018E7E8160E5CF7B
:101800001F920F920FB60F921124CF92DF92EF9298
:10181000FF920F931F932F933F934F935F936F9379
:101820007F938F939F93AF93BF93EF93FF93CF9348
:10183000DF93CDB7DEB76C97DEBFCDBF1092E90066
:101840008091E80083FF25C068E0CE0145960E94A4
:10185000700682EF8093E8008D8987FF39C09091F0
:10186000E80090FFFCCF982F907609F034C19E8954
:101870004F89588D2F89F88C911131C0803861F5CE
:101880008091B9018093F1001092F1008EEF809366
:10189000E8006C960FB6F894DEBF0FBECDBFDF91A7
:1018A000CF91FF91EF91BF91AF919F918F917F91D8
:1018B0006F915F914F913F912F911F910F91FF90E9
:1018C000EF90DF90CF900F900FBE0F901F90189564
:1018D0009EEF9093E800C7CF1092F100D5CF9130E2
:1018E00059F48111D3CF4130510581F68091B9016E
:1018F0008D7F8093B901CACF933049F48111C6CF4F
:101900004130510519F68091B9018260F2CF9530CE
:1019100041F48091E80080FFFCCF20682093E30031
:10192000B5CF963009F0A9C00B8D1C8D22E0109226
:10193000E9001092B7011092B601F2122EC0109277
:10194000B5011092B4010E943F061F8299E099836D
:10195000FA8291E09E8390EA98879AEF9987209186
:10196000B6013091B701275F3F4F3C832B838D83B6
:101970001092E9001092B7011092B6011093B501D0
:101980000093B40149E050E0BE016F5F7F4F80E0FB
:101990000E9419060E943F0679CF1093B50100936B
:1019A000B4010E94D504DC0112960D911C91011521
:1019B000110509F451C1D801ED91FC910480F58124
:1019C000E02DBE016B5E7F4FC8010995009709F0BD
:1019D0003EC1F80100851185EACFF3E0FF120EC089
:1019E0008F89882309F440C0823061F440E867E0C1
:1019F0008EE598E00E947C0E811148CF81E28093B1
:101A0000EB0047CF813029F440E86BE082E598E0B5
:101A1000F1CF833099F70E94D504DC011296ED9046
:101A2000FC908E010F5F1F4F6801E114F10479F003
:101A3000D701ED91FC910680F781E02DB801C70137
:101A40000995080F111DF701E084F184EECFD8014C
:101A50001C92F60101900020E9F73197BF016C1943
:101A60007D0940E0C601C6CF6CE378E0FB014491FC
:101A700050E080E80E94190609CF973009F4BECFE4
:101A8000983021F481E08093F10000CF993009F083
:101A9000FDCE837009F0B2CFE1E2F1E081E031E008
:101AA00096E32191222371F08093E9003093EB00BB
:101AB000DF0111972C912093EC009093ED008F5F44
:101AC000873079F78EE78093EA001092EA008F89D9
:101AD0008093C901DBCE8B8D9C8D1092E900109212
:101AE000B7011092B6019093B5018093B401898D2E
:101AF000811192C08E899D89913A49F4813209F011
:101B00007DCF47E050E06EE071E080E0B3CF9132EE
:101B100009F074CF833269F48F89988DB0E0A0E02A
:101B200080930A0190930B01A0930C01B0930D01D7
:101B3000ADCE803269F48091E80082FFFCCF67E08F
:101B40008EE091E00E9470068BEF8093E8009ECEBD
:101B5000823209F09BCE8F8980931501EEEFFFE76B
:101B6000859194918B3F9C4D51F1E0E0F8E080919C
:101B70000E0190910F01A0911001B0911101803BD5
:101B80009440A105B105F1F48091150180FD1AC0C2
:101B9000EE3F8AE0F80789F587E797E7918380832E
:101BA000809160008093B80188E19BE00FB6F894C3
:101BB000A895809360000FBE9093600067CEEEEF13
:101BC000FAE0D5CF808191818737974709F05ECEC3
:101BD000A895809160008861809360008091B80131
:101BE00080936000EE3F2AE0F20789F08091FE0AC0
:101BF0009091FF0A9183808349CE808191818737BC
:101C0000980751F29093FF0A8093FE0AC5CF109275
:101C1000FF0A1092FE0A3ACE0E94D504DC01129609
:101C20000D911C910115110509F4E8CED801ED9133
:101C3000FC910190F081E02DBE016B5E7F4FC801E9
:101C40000995811123CEF80100851185EBCF181677
:101C500019060CF41BCED2CEF1E0FF12BECE60E42A
:101C600078E004CF0F920FB68F939F93EF93FF937B
:101C700080918D018D5F8D3708F08D5780938D0198
:101C8000EFE9F1E080818E4F808391819F4F9183B6
:101C900082818F4F828383818F4F8383EEE8F1E0CF
:101CA00080818F5F808381818F4F818382818F4F7D
:101CB000828383818F4F83838FB18F6066991C9B52
:101CC00088278F3681F480918C01981B963068F0BC
:101CD000E0E0F8E087E78083818388E1809360001B
:101CE000F0936000FFCF90938C01FF91EF919F9153
:101CF0008F910FBE0F901895EF92FF920F931F9345
:101D0000CF93DF93F82E192FE62E042F81E0860F54
:101D1000880F0E94EB0583E00E94EB05CF2DD12FA9
:101D2000EC0EFD2EF11CCE15DF05B9F007FF13C038
:101D3000FE0184910E94EB05182F80E00E94EB05C4
:101D4000812321968111EFCFDF91CF911F910F91C8
:101D5000FF90EF9008958881EDCF81E0F5CFEAEC18
:101D6000F1E01382128288EE93E0A0E0B0E0848379
:101D70009583A683B7838BE291E0918380838FEF75
:101D80009FEF95878487EFE2F6E01382128289E461
:101D900091E091838083EAE1F6E0138212828DE381
:101DA00091E0918380838AE192E09683858380E845
:101DB00090E09087878380E490E09287818785E038
:101DC000848B81E0838B16861586108A178614868D
:101DD000138681E090E0928B818B14820895CDB7B9
:101DE000DEB76E97DEBFCDBF789483E084BD83E01D
:101DF00085BD81E080936E00E1E8F0E083E08083C0
:101E0000E0E881E08083E1E983E08083E0E981E04C
:101E10008083E1EC87E08083E3EC81E08083E0EC89
:101E200082E08083E2EC81E08083EAE787E08083E0
:101E3000806880831092C9011092B9011092BB0191
:101E40008091D70081608093D70080EA8093D8008A
:101E500089B5806189BD89B5826089BD09B400FEFC
:101E6000FDCF0E946D048091D8008F7C80618093AB
:101E7000D8008091E000807F8093E0008091E100B5
:101E80008E7E8093E1008DE08093E200559A209A47
:101E900081EC80937C0085B1806F85B984B1877EA9
:101EA00084B984B1876E84B95E9A5F988AB1806D77
:101EB0008AB9769A6E9881B3806F81BB899880B316
:101EC0008D7080BB80E58CBD81E08DBD85E090E0AC
:101ED0000E94C5075F9A85E090E00E94C5075E9862
:101EE0005C98EAE3F7E084918EBD00000DB407FE34
:101EF000FDCF319627E0E734F207A9F75C9A81E835
:101F000080936400809165008160809365000E94E9
:101F1000180880E80E940D08882371F05C9885EA13
:101F20008EBD00000DB407FEFDCF5C9A2E982F9851
:101F30002D980E94E807FDCF84E00E940D088823B9
:101F400009F448C02D9884E80E940D088823E1F028
:101F50000E94C30788EC90E00E94C5072F9882E09A
:101F600090E00E94E1178F3F29F06FEF82E090E050
:101F70000E94E91784EF91E00E94C5072F9A84E838
:101F80000E940D088111FBCF84E10E940D08882377
:101F9000E1F00E94C30788EC90E00E94C5072E98EC
:101FA00082E090E00E94E117882329F060E082E05F
:101FB00090E00E94E91784EF91E00E94C5072E9AF5
:101FC00084E10E940D088111FBCF88EC90E00E9413
:101FD000C507B2CF0E94C30782E090E00E948F0B3A
:101FE000882309F445C03E9A3F9A81E090E00E9420
:101FF0008F0B382F3470932E81FF11C031112E9822
:10200000E1EF4E2E55245A9408E010E080E40E943F
:102010000D08882381F12E9A2F9A0E94C30782E32C
:1020200090E00E94C5070E94E0078111F8CF0E944E
:10203000ED0787E497E09A838983E981FA816491C7
:10204000662361F08FE296E00E94780929813A8147
:102050002F5F3F4F3A832983892B79F70E94180815
:1020600088E00E940D088111CBC00E94E807F8CFDC
:102070003E983F98BACF992031F044E0441651047D
:1020800011F42E9A2F9881E00E945E04920157FE6F
:1020900004C0222733272419350927703327C201AA
:1020A00057FC079673E0959587957A95E1F757FE6B
:1020B00005C00197D801A21BB30B9D01AC01569539
:1020C000542F442757954795465E5D4FD12CC12C20
:1020D0003801621A730A8E3FBFEF9B07B1F1DA0134
:1020E000AC56BF4F7A0170E060E0F601E657F94F59
:1020F0005F018F3F980779F0F501E60FF71FE49134
:10210000F0E01F01022E01C0220C0A94EAF7F70149
:1021100084882828248A2115310571F0F501E60FFD
:10212000F71FE491F0E0062C02C0F595E7950A94BC
:10213000E2F7FC91EF2BEC936F5F7F4F1196FFEF6F
:10214000EF1AFF0A68357105A1F6019668E5C60E1B
:10215000D11C40585F4FA0EBCA16D10409F0BBCF89
:102160000E9418088FE090E00E94C507BFEF4B1A4D
:102170005B0AE9E14E16510409F048CF992011F0AD
:102180002F9A2D9880E991E00E94C5070E94C3070D
:1021900081E090E00E948F0B80FF41CF8AE090E0C9
:1021A0000E948F0B9FEF980F9E3F08F038CF22E3DD
:1021B00030E0309395012093940128E330E0309390
:1021C0009301209392012BE030E03A832983682F1A
:1021D0008FE296E00E94780989819A810E948F0B94
:1021E00049815A814F5F5F4F5A834983413151057D
:1021F00071F70E94180888EE93E00E94C5070FCF80
:102200000E943C0B1A82198210E000E034E7832E12
:1022100032E0932EA12CB12C80910001909101010C
:102220000817190724F50E948917E090B201F09071
:10223000B30149815A81E40EF51EA50194010E9463
:10224000F7170E947B1920E030E048EC52E40E942E
:10225000D118D7016D937D938D939C9313970F5F46
:102260001F4FE981FA813496FA83E983D5CF2FB7DE
:10227000F89480919F019091A001A091A101B0914B
:10228000A2012FBF20919801222349F010929801BA
:10229000A0E0B0E0AB2B59F30E940000E8CF209102
:1022A0009901F82FF21BF03128F4FF3089F30E94D6
:1022B000E807EECF21E02093980180939901809167
:1022C00096019091970101969093970180939601C2
:1022D0008091B101882339F081508093B10181113F
:1022E00002C01092C0008091AD018093AC010E94A9
:1022F000E0078093AD0188E00E940208882331F056
:102300008091B00131E083278093B00184E00E9486
:102310000208882309F12AE037ED43E25CE360918B
:1023200006017091070180910801909109010E94B6
:102330005B186B017C012DEC3CEC4CEC5DE30E94E6
:10234000CC1A18160CF42BC1C0920601D0920701CA
:10235000E0920801F092090184E00E940D088823B0
:1023600009F440C180E80E940208882309F12AE0AC
:1023700037ED43E25CE360910201709103018091CB
:102380000401909105010E945B186B017C0120E023
:1023900030E040E85FE30E94CC1A18160CF40CC140
:1023A000C0920201D0920301E0920401F092050173
:1023B00080E10E9402088823F9F02AE037ED43E229
:1023C0005CE360910201709103018091040190919E
:1023D00005010E945A186B017C0120E030E0A90140
:1023E0000E94C71887FDF5C0C0920201D092030178
:1023F000E0920401F092050180E40E940D084091F2
:10240000AE015091AF015E874D87882391F02DEC8E
:102410003CEC4CEC5DE3AD85BE856D917D918D917D
:102420009C910E945B18ED85FE8560837183828399
:10243000938380E20E940D08882391F02DEC3CEC00
:102440004CEC5DE3AD85BE856D917D918D919C9148
:102450000E945A18ED85FE85608371838283938381
:102460008090000190900101C401880F991F880F8E
:10247000991F0E94B41B89879B870091B20110911C
:10248000B301209102013091030140910401509168
:1024900005012F8B388F498F5A8F809106019091BB
:1024A0000701A0910801B09109018B8F9C8FAD8F1E
:1024B000BE8F99859B83AB85AC831A8B098B18875C
:1024C0000F839983AA83312C212C281439040CF012
:1024D000B2C0EF81F88540805180628073805801DE
:1024E000C12CD12C76011C8A1B8A2B893C8922168F
:1024F000330699F0A3019201D5016D917D918D91E3
:102500009C910E945A180E943E1B9B01AC01C7017E
:10251000B6010E945B186B017C01EB89FC89319646
:10252000FC8BEB8BF4E0AF0EB11C2B893C8982163F
:102530009306D9F6ED85FE8581919191A191B19196
:10254000FE87ED878B8B9C8BAD8BBE8BA701960195
:102550006F89788D898D9A8D0E94D11A2B893C893B
:102560004D895E890E945B182B8D3C8D4D8D5E8D53
:102570000E94D11AA30192010E945B18A981BA811D
:102580006D937D938D939D93BA83A983BFEF2B1A8F
:102590003B0AEF81F8853496F887EF8396CF8AE07F
:1025A00097EDA3E2BCE38093060190930701A0930B
:1025B0000801B0930901D0CE80E090E0A0E8BFE32D
:1025C0008093020190930301A0930401B09305014D
:1025D000EFCE1092020110920301109204011092AA
:1025E00005010ACF80E80E940208882371F08091DB
:1025F0000001909101018A3091053CF4019690937D
:102600000101809300010E943C0B80E10E940208BE
:10261000882309F4F1CE809100019091010182306C
:1026200091050CF4E9CE019790930101809300018C
:102630000E943C0BE1CE30E020E0281539059CF4E7
:10264000EB81FC8181919191A191B191FC83EB830C
:10265000E989FA8981939193A193B193FA8BE98BDC
:102660002F5F3F4FEACF89859B850E94501CD80180
:102670006D917D918D919C912BED3FE049EC50E463
:102680000E94C1196B017C0120E030E0A9010E9489
:10269000C71887FF0AC02BED3FE049EC50E4C701A3
:1026A000B6010E945B186B017C012BED3FE049EC09
:1026B0005FE3C701B6010E945A184B015C0120E09C
:1026C00030E0A9010E94CC1A18164CF52DEC3CEC18
:1026D0004CE45DE3C501B4010E94C71887FD29C021
:1026E00024EE3BEC46E950E4C701B6010E945A18BB
:1026F0006B017C0120E030E0A9010E94CC1A181681
:102700000CF0A8C02DEC3CEC4CE45DE3C701B60135
:102710000E94C71887FD0DC01092AB014AC02DEC76
:102720003CEC4CE45DEBC501B4010E94CC1A1816D8
:10273000BCF68091AB0181113CC08FB7F894C0907A
:102740009F01D090A001E090A101F090A2018FBF65
:102750008091A7019091A801A091A901B091AA012F
:102760000097A105B105D1F0A7019601281B390BEF
:102770004A0B5B0BCA01B9010E9479199B01AC019C
:1027800060E070E68AE697E40E94D1186093A301A6
:102790007093A4018093A5019093A601C092A70114
:1027A000D092A801E092A901F092AA0131E0309301
:1027B000AB012DEC3CEC4CEC5DE36091A30170911E
:1027C000A4018091A5019091A6010E94D11A6B01EC
:1027D0007C0126E636E646E65FE360919B01709158
:1027E0009C0180919D0190919E010E94D11A9B01B4
:1027F000AC01C701B6010E945B1860939B01709306
:102800009C0180939D0190939E010E94ED07409151
:102810000001509101015A834983E090AE01F0908C
:10282000AF0110E000E0812C912C540189819A8144
:1028300008171907DCF4D7012D913D914D915D9159
:102840007D01C501B4010E945B184B015C010F5F63
:102850001F4FECCF2DEC3CEC4CE45DEBC701B60117
:102860000E94CC1A18160CF057CF63CFE981FA8179
:10287000BF01FF0F880B990B0E947B199B01AC01D4
:10288000C501B4010E94D1186B017C011092280689
:1028900010922706109226061092250610922A06FC
:1028A000109229068DE591E00E94DF0942E0C70100
:1028B000B6010E94300A28E330E0309328062093C6
:1028C0002706309326062093250610922A0610929A
:1028D000290683E691E00E94DF0980910001909132
:1028E00001010E940C0B45E550E0509328064093EF
:1028F0002706509326064093250610922A0610922A
:10290000290687E691E00E94DF0960910601709137
:102910000701809108019091090142E00E94300A6C
:1029200082E090E0909328068093270690932606F5
:1029300080932506A6E0B0E0B0932A06A09329066E
:102940008CE691E00E94DF09609102017091030121
:10295000809104019091050142E00E94300AE091CB
:10296000B201F091B30160817181828193812BED7D
:102970003FE049EC50E40E94C1196B837C838D8356
:102980009E830E94CC186D877E878F87988B26E95F
:102990003AE046E05FE30E94D11A6B017C0124E13A
:1029A00030E04BE550E06CE370E08CE490E00E9496
:1029B000F40824E130E045E650E06CE370E084E7A1
:1029C00090E00E94F40824E130E045E650E064E144
:1029D00070E08BE590E00E94F4082CE330E044E7DF
:1029E00050E06CE370E08CE490E00E94F408C701D2
:1029F000B6010E943E1B20E030E04CE052E40E9411
:102A0000D11A20E030E040EC52E40E945B180E94B2
:102A100043194B01C701B6010E94CC1820E030E0F9
:102A20004CE052E40E94D11A9B01AC0160E070E0DE
:102A300080E792E40E945A180E9443192B019B01DF
:102A4000A4016CE370E080E690E00E94F40842E0AC
:102A5000B201C4010E945F08EAE0F0E0FA83E98372
:102A600041E060E270E089819A810E941B0829811F
:102A70003A812E5F3F4F3A8329832837310581F70A
:102A80001A82198200E210E049815A81BA01550F79
:102A9000880B990B0E947B192BED3FE049EC50E429
:102AA0000E94D11A20E030E048ED52E40E94D11893
:102AB0000E943E1B20E030E040EA51E40E94D11A1F
:102AC0000E944319D801A61BB70BBD0141E08981C3
:102AD0009A810A960E941B08E981FA813296FA834C
:102AE000E983EC36F10581F66B817C818D819E81D5
:102AF0000E943E1B20E030E040EA51E40E94D11ADF
:102B00002B013C010E944319061B170B27E832E8F2
:102B100049E851E46B817C818D819E810E94D11AAC
:102B20000E944319CB010A9641E0B8010E945F0858
:102B30008091B001882309F45BC026E93AE046E0C1
:102B40005FE3C701B6010E945A184B015C0120E007
:102B500030E0A9010E94CC1A18164CF52AE037ED96
:102B600043E25CE3C501B4010E94C71887FD29C098
:102B700026E93AE046E05FE3C701B6010E945B1830
:102B80004B015C0120E030E0A9010E94CC1A18162C
:102B90000CF059C12AE037ED43E25CE3C501B40112
:102BA0000E94C71887FD0DC010929A0121C02AE02B
:102BB00037ED43E25CEBC501B4010E94CC1A181654
:102BC000BCF680919A01811113C080E48093C0000B
:102BD0001092BF00F6E4F093D1008AE090E00E94EA
:102BE000C5071092B1011092C00021E020939A0114
:102BF0004CE450E05A8349832CE330E049815A8108
:102C00006AE370E0CA010E94F40889819A810496FF
:102C10009A8389838837910579F741E064E370E00E
:102C200080E290E00E941B0841E06CE070E080E2EE
:102C300090E00E941B0841E060E270E084E390E0D5
:102C40000E941B0841E060E270E08CE090E00E948E
:102C50001B081A8A198AA1E0B0E0BC87AB8784E11F
:102C6000282E312CE8EDFFEFFA87E9870DEE1FEFF4
:102C700049895A894F5F5F4F5A8B498B8B859C8559
:102C800002969C878B87080F191F5A0190E2A90EA4
:102C9000B11C41E04101A0E28A0E911CB401C501C2
:102CA0000E941B08E0E2F0E029893A89E21BF30B5D
:102CB000F887EF8341E0B401CF010E941B0841E097
:102CC00080E290E0821993099A838983BC01C5014F
:102CD0000E941B0841E069817A818F8198850E945A
:102CE0001B0841E0B501C4010E941B0841E0B50189
:102CF00089819A810E941B0841E06F817885C40117
:102D00000E941B0841E06F81788589819A810E9429
:102D10001B08A989BA89A215B3050CF4A0C020E04C
:102D200030E040E052E4C301B2010E945B180E940F
:102D300043194B0120E030E040EA51E46D857E8587
:102D40008F8598890E94D11A20E030E040E052E45B
:102D50000E945B180E944319CB0142E0B4010E941B
:102D60005F0820EE3EE245E652E46B817C818D8176
:102D70009E810E94D11A0E944319CB0168E671E03E
:102D80000E94861B9A83898397FF04C088599E4FAF
:102D90009A8389838CE090E090932806809327069D
:102DA0009093260680932506E8E3F0E0F0932A0648
:102DB000E093290680E791E00E94DF0989819A81EA
:102DC0000E940C0B24E430E0309328062093270661
:102DD000309326062093250646E050E050932A06BD
:102DE0004093290687E791E00E94DF0920EE3EE24A
:102DF00045E652E4C701B6010E94D11A40E00E94A4
:102E0000300A8CE490E090932806809327069093F4
:102E10002606809325068EE090E090932A06809304
:102E2000290681E891E00E94DF096091A301709179
:102E3000A4018091A5019091A60140E00E94300A72
:102E40000E94180825CA2AE037ED43E25CEBC50171
:102E5000B4010E94CC1A18160CF0A6CEB2CE17FD03
:102E600007CFF1E02F1A310829853A852E5F3F4FB1
:102E70003A872987020F131FFBCE8F929F92AF9242
:102E8000BF92CF92DF92EF92FF92CF93DF93EC014C
:102E9000688179818A819B81611571058105910520
:102EA00021F464E279ED8BE597E02DE133EF41E029
:102EB00050E00E94F71749015A019B01AC01A7EAB3
:102EC000B1E40E9416186B017C01ACEEB4EFA501D1
:102ED00094010E942418C60ED71EE81EF91EF7FEA4
:102EE00006C081E0C81AD108E10880E8F80AC88263
:102EF000D982EA82FB82C701B6019F77DF91CF9129
:102F0000FF90EF90DF90CF90BF90AF909F908F9009
:102F100008958F929F92AF92BF92CF92DF92EF92DD
:102F2000FF926091160170911701809118019091A4
:102F30001901611571058105910521F464E279EDAE
:102F40008BE597E02DE133EF41E050E00E94F71769
:102F500049015A019B01AC01A7EAB1E40E9416188D
:102F60006B017C01ACEEB4EFA50194010E94241822
:102F7000C60ED71EE81EF91EF7FE06C081E0C81A6D
:102F8000D108E10880E8F80AC0921601D092170132
:102F9000E0921801F0921901C701B6019F77FF90E6
:102FA000EF90DF90CF90BF90AF909F908F9008955B
:102FB0006093160170931701809318019093190183
:102FC0000895F999FECF92BD81BDF89A992780B5F1
:102FD0000895262FF999FECF1FBA92BD81BD20BD5D
:102FE0000FB6F894FA9AF99A0FBE01960895052E35
:102FF00097FB1EF400940E940E1857FD07D00E9404
:10300000291807FC03D04EF40C940E1850954095E7
:10301000309521953F4F4F4F5F4F08959095809584
:10302000709561957F4F8F4F9F4F08950E944B1869
:10303000A59F900DB49F900DA49F800D911D11240C
:103040000895B7FF0C9416180E941618821B930B54
:103050000895A1E21A2EAA1BBB1BFD010DC0AA1FD9
:10306000BB1FEE1FFF1FA217B307E407F50720F0F1
:10307000A21BB30BE40BF50B661F771F881F991F6C
:103080001A9469F760957095809590959B01AC01B5
:10309000BD01CF010895A29FB001B39FC001A39FBE
:1030A000700D811D1124911DB29F700D811D112481
:1030B000911D08955058BB27AA270E9472180C949E
:1030C0007E1A0E94451A38F00E944C1A20F039F4FA
:1030D0009F3F19F426F40C94421A0EF4E095E7FB96
:1030E0000C942E1AE92F0E94A31A58F3BA176207FC
:1030F00073078407950720F079F4A6F50C94C51A98
:103100000EF4E0950B2EBA2FA02D0B01B901900102
:103110000C01CA01A0011124FF27591B99F0593F46
:1031200050F4503E68F11A16F040A22F232F342F8E
:103130004427585FF3CF469537952795A795F040DC
:103140005395C9F77EF41F16BA0B620B730B840BF1
:10315000BAF09150A1F0FF0FBB1F661F771F881FA9
:10316000C2F70EC0BA0F621F731F841F48F4879501
:1031700077956795B795F7959E3F08F0B0CF9395F3
:10318000880F08F09927EE0F9795879508950E946C
:103190000A1A08F481E008950E94551AE3950C94E8
:1031A0008F1A0E94E5180C947E1A0E944C1A58F04F
:1031B0000E94451A40F029F45F3F29F00C942E1A22
:1031C00051110C94C61A0C94421A0E94A31A68F367
:1031D0009923B1F3552391F3951B550BBB27AA27D0
:1031E00062177307840738F09F5F5F4F220F331F0A
:1031F000441FAA1FA9F335D00E2E3AF0E0E832D0D2
:1032000091505040E695001CCAF72BD0FE2F29D0D4
:10321000660F771F881FBB1F261737074807AB07A6
:10322000B0E809F0BB0B802DBF01FF2793585F4F1B
:103230003AF09E3F510578F00C942E1A0C94C61A61
:103240005F3FE4F3983ED4F3869577956795B795FD
:10325000F7959F5FC9F7880F911D9695879597F908
:103260000895E1E0660F771F881FBB1F6217730781
:103270008407BA0720F0621B730B840BBA0BEE1F96
:1032800088F7E09508950E944A196894B1110C944A
:10329000C61A08950E94AB1A88F09F5798F0B92F6C
:1032A0009927B751B0F0E1F0660F771F881F991F7B
:1032B0001AF0BA95C9F714C0B13091F00E94C51A3E
:1032C000B1E008950C94C51A672F782F8827B85F4E
:1032D00039F0B93FCCF3869577956795B395D9F7D3
:1032E0003EF490958095709561957F4F8F4F9F4FDD
:1032F0000895E89409C097FB3EF4909580957095E9
:1033000061957F4F8F4F9F4F9923A9F0F92F96E931
:10331000BB279395F695879577956795B795F111A6
:10332000F8CFFAF4BB0F11F460FF1BC06F5F7F4F43
:103330008F4F9F4F16C0882311F096E911C0772355
:1033400021F09EE8872F762F05C0662371F096E85E
:10335000862F70E060E02AF09A95660F771F881F2D
:10336000DAF7880F9695879597F908950E94451A80
:1033700020F019F00E944C1A50F40C94421A0C944C
:10338000C61AE92F0E94A31A88F35523B1F3E7FB6D
:103390006217730784079507A8F189F3E92FFF27C0
:1033A00088232AF03197660F771F881FDAF7952F49
:1033B0005527442332F091505040220F331F441FB1
:1033C000D2F7BB27E91BF50B621B730B840BB1090A
:1033D000B1F222F4620F731F841FB11D31972AF0DE
:1033E000660F771F881FBB1FEFCF9150504062F0D0
:1033F00041F0882332F0660F771F881F91505040AC
:10340000C1F793950C94341A8695779567959F5FCD
:10341000D9F7F7CF990F0008550FAA0BE0E8FEEF98
:1034200016161706E807F907C0F012161306E40788
:10343000F50798F0621B730B840B950B39F40A2681
:1034400061F0232B242B252B21F408950A2609F45F
:10345000A140A6958FEF811D811D089597F99F6763
:1034600080E870E060E008959F3F31F0915020F4D3
:10347000879577956795B795880F911D9695879550
:1034800097F908959FEF80EC089500240A9416168A
:10349000170618060906089500240A941216130642
:1034A0001406050608950C94421A0E94AB1AD8F32C
:1034B000E894E0E0BB279F57F0F02AED3FE049ECAD
:1034C00006C0EE0FBB0F661F771F881F28F0B23AA9
:1034D00062077307840728F0B25A620B730B840BE0
:1034E000E3959A9572F7803830F49A95BB0F661F72
:1034F000771F881FD2F790480C94361A092E039430
:10350000000C11F4882352F0BB0F40F4BF2B11F4D0
:1035100060FF04C06F5F7F4F8F4F9F4F0895EF9301
:10352000E0FF07C0A2EA2AED3FE049EC5FEB0E9412
:1035300072180E947E1A0F90039401FC9058ECEAD6
:10354000F0E00C944B1B57FD9058440F551F59F059
:103550005F3F71F04795880F97FB991F61F09F3F80
:1035600079F087950895121613061406551FF2CFA9
:103570004695F1DF08C0161617061806991FF1CFF9
:1035800086957105610508940895E894BB27662720
:103590007727CB0197F908950E940A1A08F48FEF54
:1035A00008950E94E41A0C947E1A0E94451A38F07D
:1035B0000E944C1A20F0952311F00C942E1A0C94B2
:1035C000421A11240C94C61A0E94A31A70F3959FF4
:1035D000C1F3950F50E0551F629FF001729FBB270A
:1035E000F00DB11D639FAA27F00DB11DAA1F649FA6
:1035F0006627B00DA11D661F829F2227B00DA11D59
:10360000621F739FB00DA11D621F839FA00D611DDE
:10361000221F749F3327A00D611D231F849F600DFF
:10362000211D822F762F6A2F11249F5750409AF028
:10363000F1F088234AF0EE0FFF1FBB1F661F771FB4
:10364000881F91505040A9F79E3F510580F00C947F
:103650002E1A0C94C61A5F3FE4F3983ED4F3869575
:1036600077956795B795F795E7959F5FC1F7FE2B1F
:10367000880F911D9695879597F908959F930E94BD
:10368000551A0F9007FCEE5F0C948F1A0E940A1ACD
:10369000880B990B08959F938F937F936F93FF935C
:1036A000EF939B01AC010E94D11AEF91FF910E9410
:1036B0005F1B2F913F914F915F910C94D11ADF9333
:1036C000CF931F930F93FF92EF92DF927B018C01B8
:1036D000689406C0DA2EEF010E94E41AFE01E89415
:1036E000A5912591359145915591A6F3EF010E9441
:1036F0007218FE019701A801DA9469F7DF90EF9044
:10370000FF900F911F91CF91DF91089597FB072EA6
:1037100016F4009407D077FD09D00E949A1B07FC8D
:1037200005D03EF4909581959F4F089570956195D1
:103730007F4F0895AA1BBB1B51E107C0AA1FBB1FE7
:10374000A617B70710F0A61BB70B881F991F5A952D
:10375000A9F780959095BC01CD010895EE0FFF1F4C
:103760000590F491E02D09940F931F93CF93DF936D
:103770008230910510F482E090E0E0913506F091FE
:10378000360630E020E0B0E0A0E0309799F4211553
:10379000310509F44AC0281B390B24303105D8F50E
:1037A0008A819B816115710589F1FB019383828375
:1037B000FE0111C0408151810281138148175907D0
:1037C000E0F04817590799F4109761F012960C939E
:1037D000129713961C933296CF01DF91CF911F91D0
:1037E0000F9108950093350610933606F4CF2115F6
:1037F000310551F04217530738F0A901DB019A0156
:10380000BD01DF01F801C1CFEF01F9CF909336067A
:1038100080933506CDCFFE01E20FF31F8193919384
:103820002250310939832883D7CF20913306309134
:103830003406232B41F420911C0130911D0130935B
:1038400034062093330620911A0130911B01211573
:10385000310541F42DB73EB740911E0150911F0133
:10386000241B350BE0913306F0913406E217F30781
:10387000A0F42E1B3F0B2817390778F0AC014E5FE0
:103880005F4F2417350748F04E0F5F1F50933406E3
:1038900040933306819391939FCFF0E0E0E09CCF7B
:1038A000CF93DF930097E9F0FC01329713821282E5
:1038B000A0913506B0913606ED0130E020E010977A
:1038C000A1F420813181820F931F20913306309122
:1038D00034062817390709F061C0F0933406E093E5
:1038E0003306DF91CF910895EA01CE17DF07E8F59F
:1038F0004A815B819E0141155105B1F7E901FB83C6
:10390000EA8349915991C40FD51FEC17FD0761F463
:10391000808191810296840F951FE90199838883A4
:10392000828193819B838A83F0E0E0E012968D91FF
:103930009C9113970097B9F52D913C911197CD016A
:103940000296820F931F2091330630913406281778
:10395000390739F6309751F5109236061092350630
:10396000B0933406A0933306BCCFD383C283408187
:103970005181840F951FC817D90761F44E5F5F4FBF
:1039800088819981480F591F518340838A819B8187
:10399000938382832115310509F0B0CFF093360669
:1039A000E09335069ECFFD01DC01C0CF1382128269
:0639B000D7CFF894FFCF11
:1039B6000300CDCCCC3DCDCC4C3DFFFFFFFF00E15D
:1039C6000000000000000100000000003706800033
:1039D60000C18081000000000000006A05E9048B38
:1039E600058005D1058F05AD050000000018077D8F
:1039F60006DC09DB090000000078097D06DC09DB2E
:103A0600096E616E00696E66006F766600467265C5
:103A1600713D004E3D200044543D20004B3D2000AA
:103A2600416E676C653A0050656E64756C756D3AEB
:063A36000042504D3A0071
:00000001FF
